{
  "address": "0x311c46C2ceEEad93877A03449beBf887ac303272",
  "abi": [
    {
      "inputs": [],
      "stateMutability": "nonpayable",
      "type": "constructor"
    },
    {
      "anonymous": false,
      "inputs": [
        {
          "indexed": true,
          "internalType": "uint256",
          "name": "rate",
          "type": "uint256"
        },
        {
          "indexed": true,
          "internalType": "uint256",
          "name": "timestamp",
          "type": "uint256"
        }
      ],
      "name": "AlertInvalidRate",
      "type": "event"
    },
    {
      "anonymous": false,
      "inputs": [
        {
          "indexed": true,
          "internalType": "int256",
          "name": "reserve",
          "type": "int256"
        },
        {
          "indexed": true,
          "internalType": "uint256",
          "name": "timestamp",
          "type": "uint256"
        }
      ],
      "name": "AlertInvalidReserve",
      "type": "event"
    },
    {
      "anonymous": false,
      "inputs": [
        {
          "indexed": true,
          "internalType": "uint256",
          "name": "reserve",
          "type": "uint256"
        },
        {
          "indexed": true,
          "internalType": "uint256",
          "name": "tvl",
          "type": "uint256"
        },
        {
          "indexed": true,
          "internalType": "uint256",
          "name": "timestamp",
          "type": "uint256"
        }
      ],
      "name": "AlertInvalidReserveDifference",
      "type": "event"
    },
    {
      "anonymous": false,
      "inputs": [
        {
          "indexed": false,
          "internalType": "uint8",
          "name": "version",
          "type": "uint8"
        }
      ],
      "name": "Initialized",
      "type": "event"
    },
    {
      "anonymous": false,
      "inputs": [
        {
          "indexed": true,
          "internalType": "uint256",
          "name": "rate",
          "type": "uint256"
        },
        {
          "indexed": true,
          "internalType": "uint256",
          "name": "timestamp",
          "type": "uint256"
        }
      ],
      "name": "LatestRateUpdated",
      "type": "event"
    },
    {
      "anonymous": false,
      "inputs": [
        {
          "indexed": false,
          "internalType": "uint256",
          "name": "maxDifferencePercent",
          "type": "uint256"
        }
      ],
      "name": "MaxDifferencePercentSet",
      "type": "event"
    },
    {
      "anonymous": false,
      "inputs": [
        {
          "indexed": true,
          "internalType": "address",
          "name": "previousOwner",
          "type": "address"
        },
        {
          "indexed": true,
          "internalType": "address",
          "name": "newOwner",
          "type": "address"
        }
      ],
      "name": "OwnershipTransferStarted",
      "type": "event"
    },
    {
      "anonymous": false,
      "inputs": [
        {
          "indexed": true,
          "internalType": "address",
          "name": "previousOwner",
          "type": "address"
        },
        {
          "indexed": true,
          "internalType": "address",
          "name": "newOwner",
          "type": "address"
        }
      ],
      "name": "OwnershipTransferred",
      "type": "event"
    },
    {
      "anonymous": false,
      "inputs": [
        {
          "indexed": true,
          "internalType": "address",
          "name": "reserveFeed",
          "type": "address"
        }
      ],
      "name": "ReserveFeedSet",
      "type": "event"
    },
    {
      "anonymous": false,
      "inputs": [
        {
          "indexed": true,
          "internalType": "address",
          "name": "updater",
          "type": "address"
        }
      ],
      "name": "UpdaterSet",
      "type": "event"
    },
    {
      "inputs": [],
      "name": "MAX_RATE",
      "outputs": [
        {
          "internalType": "uint256",
          "name": "",
          "type": "uint256"
        }
      ],
      "stateMutability": "view",
      "type": "function"
    },
    {
      "inputs": [],
      "name": "MIN_RATE",
      "outputs": [
        {
          "internalType": "uint256",
          "name": "",
          "type": "uint256"
        }
      ],
      "stateMutability": "view",
      "type": "function"
    },
    {
      "inputs": [],
      "name": "RATE_PRECISION_FACTOR",
      "outputs": [
        {
          "internalType": "uint256",
          "name": "",
          "type": "uint256"
        }
      ],
      "stateMutability": "view",
      "type": "function"
    },
    {
      "inputs": [],
      "name": "acceptOwnership",
      "outputs": [],
      "stateMutability": "nonpayable",
      "type": "function"
    },
    {
      "inputs": [],
      "name": "getLastTVL",
      "outputs": [
        {
          "internalType": "uint256",
          "name": "",
          "type": "uint256"
        }
      ],
      "stateMutability": "view",
      "type": "function"
    },
    {
      "inputs": [],
      "name": "getLatestRate",
      "outputs": [
        {
          "internalType": "uint256",
          "name": "",
          "type": "uint256"
        }
      ],
      "stateMutability": "view",
      "type": "function"
    },
    {
      "inputs": [],
      "name": "getLatestTotalSupply",
      "outputs": [
        {
          "internalType": "uint256",
          "name": "",
          "type": "uint256"
        }
      ],
      "stateMutability": "view",
      "type": "function"
    },
    {
      "inputs": [],
      "name": "getLatestUpdateTime",
      "outputs": [
        {
          "internalType": "uint256",
          "name": "",
          "type": "uint256"
        }
      ],
      "stateMutability": "view",
      "type": "function"
    },
    {
      "inputs": [],
      "name": "getMaxDifferencePercent",
      "outputs": [
        {
          "internalType": "uint256",
          "name": "",
          "type": "uint256"
        }
      ],
      "stateMutability": "view",
      "type": "function"
    },
    {
      "inputs": [],
      "name": "getReserveFeed",
      "outputs": [
        {
          "internalType": "address",
          "name": "",
          "type": "address"
        }
      ],
      "stateMutability": "view",
      "type": "function"
    },
    {
      "inputs": [],
      "name": "getUpdater",
      "outputs": [
        {
          "internalType": "address",
          "name": "",
          "type": "address"
        }
      ],
      "stateMutability": "view",
      "type": "function"
    },
    {
      "inputs": [
        {
          "internalType": "address",
          "name": "reserveFeed_",
          "type": "address"
        },
        {
          "internalType": "address",
          "name": "updater_",
          "type": "address"
        },
        {
          "internalType": "uint256",
          "name": "maxDifferencePercent_",
          "type": "uint256"
        }
      ],
      "name": "initialize",
      "outputs": [],
      "stateMutability": "nonpayable",
      "type": "function"
    },
    {
      "inputs": [],
      "name": "owner",
      "outputs": [
        {
          "internalType": "address",
          "name": "",
          "type": "address"
        }
      ],
      "stateMutability": "view",
      "type": "function"
    },
    {
      "inputs": [],
      "name": "pendingOwner",
      "outputs": [
        {
          "internalType": "address",
          "name": "",
          "type": "address"
        }
      ],
      "stateMutability": "view",
      "type": "function"
    },
    {
      "inputs": [],
      "name": "renounceOwnership",
      "outputs": [],
      "stateMutability": "nonpayable",
      "type": "function"
    },
    {
      "inputs": [
        {
          "internalType": "uint256",
          "name": "maxDifferencePercent",
          "type": "uint256"
        }
      ],
      "name": "setMaxDifferencePercent",
      "outputs": [],
      "stateMutability": "nonpayable",
      "type": "function"
    },
    {
      "inputs": [
        {
          "internalType": "address",
          "name": "reserveFeed",
          "type": "address"
        }
      ],
      "name": "setReserveFeed",
      "outputs": [],
      "stateMutability": "nonpayable",
      "type": "function"
    },
    {
      "inputs": [
        {
          "internalType": "address",
          "name": "updater",
          "type": "address"
        }
      ],
      "name": "setUpdater",
      "outputs": [],
      "stateMutability": "nonpayable",
      "type": "function"
    },
    {
      "inputs": [
        {
          "internalType": "address",
          "name": "newOwner",
          "type": "address"
        }
      ],
      "name": "transferOwnership",
      "outputs": [],
      "stateMutability": "nonpayable",
      "type": "function"
    },
    {
      "inputs": [
        {
          "internalType": "uint256",
          "name": "totalSupply_",
          "type": "uint256"
        },
        {
          "internalType": "uint256",
          "name": "totalTVL_",
          "type": "uint256"
        }
      ],
      "name": "updateRate",
      "outputs": [
        {
          "internalType": "uint256",
          "name": "",
          "type": "uint256"
        }
      ],
      "stateMutability": "nonpayable",
      "type": "function"
    }
  ],
  "transactionHash": "0xa1f2dd2e7f5f92d13a00cb59ba06957ba9c592a691956f72e656edd9b65252ed",
  "args": [],
  "numDeployments": 1,
  "solcInputHash": "b91ad7004422e39c575c59ba12baec99",
  "bytecode": "0x608060405234801561001057600080fd5b5061001f61002460201b60201c565b6101be565b600060019054906101000a900460ff1615610074576040517f08c379a000000000000000000000000000000000000000000000000000000000815260040161006b90610167565b60405180910390fd5b60ff801660008054906101000a900460ff1660ff16146100e25760ff6000806101000a81548160ff021916908360ff1602179055507f7f26b83ff96e1f2b6a682f133852f6798a09c465da95921460cefb384740249860ff6040516100d991906101a3565b60405180910390a15b565b600082825260208201905092915050565b7f496e697469616c697a61626c653a20636f6e747261637420697320696e69746960008201527f616c697a696e6700000000000000000000000000000000000000000000000000602082015250565b60006101516027836100e4565b915061015c826100f5565b604082019050919050565b6000602082019050818103600083015261018081610144565b9050919050565b600060ff82169050919050565b61019d81610187565b82525050565b60006020820190506101b86000830184610194565b92915050565b611a4f806101cd6000396000f3fe608060405234801561001057600080fd5b506004361061012c5760003560e01c806399d54d39116100ad578063ce36876111610071578063ce368761146102d5578063d819bfef146102f3578063e1e7ff7714610311578063e30c39781461032f578063f2fde38b1461034d5761012c565b806399d54d39146102415780639d54f4191461025f578063a3131ce01461027b578063c21b4d7e14610299578063c24dbebd146102b75761012c565b8063405abb41116100f4578063405abb41146101c15780636f4de223146101f1578063715018a61461020f57806379ba5097146102195780638da5cb5b146102235761012c565b8063155c51a1146101315780631794bb3c1461014f5780632461d19c1461016b5780632b0e8cd7146101895780633c455647146101a5575b600080fd5b610139610369565b60405161014691906111b7565b60405180910390f35b61016960048036038101906101649190611239565b6103a1565b005b6101736104fd565b604051610180919061129b565b60405180910390f35b6101a3600480360381019061019e91906112b6565b610515565b005b6101bf60048036038101906101ba91906112e3565b610529565b005b6101db60048036038101906101d69190611310565b61053d565b6040516101e8919061129b565b60405180910390f35b6101f96108c2565b604051610206919061129b565b60405180910390f35b6102176108da565b005b6102216108ee565b005b61022b61097b565b60405161023891906111b7565b60405180910390f35b6102496109a5565b60405161025691906111b7565b60405180910390f35b610279600480360381019061027491906112b6565b6109dd565b005b6102836109f1565b604051610290919061129b565b60405180910390f35b6102a1610a09565b6040516102ae919061129b565b60405180910390f35b6102bf610a15565b6040516102cc919061129b565b60405180910390f35b6102dd610a3b565b6040516102ea919061129b565b60405180910390f35b6102fb610a53565b604051610308919061129b565b60405180910390f35b610319610a79565b604051610326919061129b565b60405180910390f35b610337610a91565b60405161034491906111b7565b60405180910390f35b610367600480360381019061036291906112b6565b610abb565b005b600080610374610b68565b90508060000160009054906101000a900473ffffffffffffffffffffffffffffffffffffffff1691505090565b60008060019054906101000a900460ff161590508080156103d25750600160008054906101000a900460ff1660ff16105b806103ff57506103e130610b90565b1580156103fe5750600160008054906101000a900460ff1660ff16145b5b61043e576040517f08c379a0000000000000000000000000000000000000000000000000000000008152600401610435906113d3565b60405180910390fd5b60016000806101000a81548160ff021916908360ff160217905550801561047b576001600060016101000a81548160ff0219169083151502179055505b61048484610bb3565b61048d83610cb8565b61049682610dbd565b61049e610e64565b80156104f75760008060016101000a81548160ff0219169083151502179055507f7f26b83ff96e1f2b6a682f133852f6798a09c465da95921460cefb384740249860016040516104ee9190611445565b60405180910390a15b50505050565b600080610508610b68565b9050806003015491505090565b61051d610ebd565b61052681610bb3565b50565b610531610ebd565b61053a81610dbd565b50565b600080610548610b68565b90508060010160009054906101000a900473ffffffffffffffffffffffffffffffffffffffff1673ffffffffffffffffffffffffffffffffffffffff163373ffffffffffffffffffffffffffffffffffffffff16146105dc576040517f08c379a00000000000000000000000000000000000000000000000000000000081526004016105d3906114ac565b60405180910390fd5b6000841161061f576040517f08c379a000000000000000000000000000000000000000000000000000000000815260040161061690611518565b60405180910390fd5b6000610629610b68565b905060008160000160009054906101000a900473ffffffffffffffffffffffffffffffffffffffff16905060008173ffffffffffffffffffffffffffffffffffffffff1663feaf968c6040518163ffffffff1660e01b815260040160a060405180830381865afa1580156106a1573d6000803e3d6000fd5b505050506040513d601f19601f820116820180604052508101906106c591906115c5565b50505091505060008112156107115742817f87c789d7e0c131494a94a50dace106fc5b8f5f39f517785439845e9e336bf44360405160405180910390a3826006015494505050506108bb565b60008190506000878211156107455761073e888361072f919061166f565b670de0b6b3a764000084610f3b565b9050610766565b6107638289610754919061166f565b670de0b6b3a76400008a610f3b565b90505b84600201548111156107b2574288837f532f9adfd59afa5efb1bc10932edf77576e1ad042bf53c323951610f02704a1c60405160405180910390a48460060154965050505050506108bb565b60006107c789670de0b6b3a76400008c610f3b565b90506103e8670de0b6b3a76400006103d96107e291906116a3565b6107ec9190611714565b81108061081a57506103e8670de0b6b3a76400006103f761080d91906116a3565b6108179190611714565b81115b1561085f5742817f7030cf3ff69cb2959191ed2eff8ee7cfc786dca461d8941141b29b79a855008860405160405180910390a3856006015497505050505050506108bb565b88866005018190555089866004018190555042866003018190555080866006018190555042817f6bd054af96a61c0cb825804e65b67d348a458d52fa7ee0ff195d5a11445b2b9f60405160405180910390a38097505050505050505b5092915050565b6000806108cd610b68565b9050806002015491505090565b6108e2610ebd565b6108ec6000611016565b565b60006108f8611047565b90508073ffffffffffffffffffffffffffffffffffffffff16610919610a91565b73ffffffffffffffffffffffffffffffffffffffff161461096f576040517f08c379a0000000000000000000000000000000000000000000000000000000008152600401610966906117b7565b60405180910390fd5b61097881611016565b50565b6000603360009054906101000a900473ffffffffffffffffffffffffffffffffffffffff16905090565b6000806109b0610b68565b90508060010160009054906101000a900473ffffffffffffffffffffffffffffffffffffffff1691505090565b6109e5610ebd565b6109ee81610cb8565b50565b6000806109fc610b68565b9050806005015491505090565b670de0b6b3a764000081565b6103e8670de0b6b3a76400006103f7610a2e91906116a3565b610a389190611714565b81565b600080610a46610b68565b9050806004015491505090565b6103e8670de0b6b3a76400006103d9610a6c91906116a3565b610a769190611714565b81565b600080610a84610b68565b9050806006015491505090565b6000606560009054906101000a900473ffffffffffffffffffffffffffffffffffffffff16905090565b610ac3610ebd565b80606560006101000a81548173ffffffffffffffffffffffffffffffffffffffff021916908373ffffffffffffffffffffffffffffffffffffffff1602179055508073ffffffffffffffffffffffffffffffffffffffff16610b2361097b565b73ffffffffffffffffffffffffffffffffffffffff167f38d16b8cac22d99fc7c124b9cd0de2d3fa1faef420bfe791d8c362d765e2270060405160405180910390a350565b60007fc8c866c3e879217162bd80a59ef0b1bbdd0d0754eefb3fd6155ad5f531dbc400905090565b6000808273ffffffffffffffffffffffffffffffffffffffff163b119050919050565b600073ffffffffffffffffffffffffffffffffffffffff168173ffffffffffffffffffffffffffffffffffffffff1603610c22576040517f08c379a0000000000000000000000000000000000000000000000000000000008152600401610c1990611823565b60405180910390fd5b6000610c2c610b68565b9050818160000160006101000a81548173ffffffffffffffffffffffffffffffffffffffff021916908373ffffffffffffffffffffffffffffffffffffffff1602179055508173ffffffffffffffffffffffffffffffffffffffff167ffb87de77fbda385148da8fb8b91afa737d901d5863a4593c29de956aada8f52360405160405180910390a25050565b600073ffffffffffffffffffffffffffffffffffffffff168173ffffffffffffffffffffffffffffffffffffffff1603610d27576040517f08c379a0000000000000000000000000000000000000000000000000000000008152600401610d1e9061188f565b60405180910390fd5b6000610d31610b68565b9050818160010160006101000a81548173ffffffffffffffffffffffffffffffffffffffff021916908373ffffffffffffffffffffffffffffffffffffffff1602179055508173ffffffffffffffffffffffffffffffffffffffff167f5a39b8d3fd7361f3c5173afba233b7f1530567d03f9dfb0a2ca414960f08541d60405160405180910390a25050565b600081118015610dd55750670de0b6b3a76400008111155b610e14576040517f08c379a0000000000000000000000000000000000000000000000000000000008152600401610e0b906118fb565b60405180910390fd5b6000610e1e610b68565b90508181600201819055507ff359e37023687b9616eb1996f4e4d4a7cef694156730c46db4f0cc89253142f882604051610e58919061129b565b60405180910390a15050565b600060019054906101000a900460ff16610eb3576040517f08c379a0000000000000000000000000000000000000000000000000000000008152600401610eaa9061198d565b60405180910390fd5b610ebb61104f565b565b610ec5611047565b73ffffffffffffffffffffffffffffffffffffffff16610ee361097b565b73ffffffffffffffffffffffffffffffffffffffff1614610f39576040517f08c379a0000000000000000000000000000000000000000000000000000000008152600401610f30906119f9565b60405180910390fd5b565b6000806000801985870985870292508281108382030391505060008103610f7657838281610f6c57610f6b6116e5565b5b049250505061100f565b808411610f8257600080fd5b60008486880990508281118203915080830392506000600186190186169050808604955080840493506001818260000304019050808302841793506000600287600302189050808702600203810290508087026002038102905080870260020381029050808702600203810290508087026002038102905080870260020381029050808502955050505050505b9392505050565b606560006101000a81549073ffffffffffffffffffffffffffffffffffffffff0219169055611044816110b0565b50565b600033905090565b600060019054906101000a900460ff1661109e576040517f08c379a00000000000000000000000000000000000000000000000000000000081526004016110959061198d565b60405180910390fd5b6110ae6110a9611047565b611016565b565b6000603360009054906101000a900473ffffffffffffffffffffffffffffffffffffffff16905081603360006101000a81548173ffffffffffffffffffffffffffffffffffffffff021916908373ffffffffffffffffffffffffffffffffffffffff1602179055508173ffffffffffffffffffffffffffffffffffffffff168173ffffffffffffffffffffffffffffffffffffffff167f8be0079c531659141344cd1fd0a4f28419497f9722a3daafe3b4186f6b6457e060405160405180910390a35050565b600073ffffffffffffffffffffffffffffffffffffffff82169050919050565b60006111a182611176565b9050919050565b6111b181611196565b82525050565b60006020820190506111cc60008301846111a8565b92915050565b600080fd5b6111e081611196565b81146111eb57600080fd5b50565b6000813590506111fd816111d7565b92915050565b6000819050919050565b61121681611203565b811461122157600080fd5b50565b6000813590506112338161120d565b92915050565b600080600060608486031215611252576112516111d2565b5b6000611260868287016111ee565b9350506020611271868287016111ee565b925050604061128286828701611224565b9150509250925092565b61129581611203565b82525050565b60006020820190506112b0600083018461128c565b92915050565b6000602082840312156112cc576112cb6111d2565b5b60006112da848285016111ee565b91505092915050565b6000602082840312156112f9576112f86111d2565b5b600061130784828501611224565b91505092915050565b60008060408385031215611327576113266111d2565b5b600061133585828601611224565b925050602061134685828601611224565b9150509250929050565b600082825260208201905092915050565b7f496e697469616c697a61626c653a20636f6e747261637420697320616c72656160008201527f647920696e697469616c697a6564000000000000000000000000000000000000602082015250565b60006113bd602e83611350565b91506113c882611361565b604082019050919050565b600060208201905081810360008301526113ec816113b0565b9050919050565b6000819050919050565b600060ff82169050919050565b6000819050919050565b600061142f61142a611425846113f3565b61140a565b6113fd565b9050919050565b61143f81611414565b82525050565b600060208201905061145a6000830184611436565b92915050565b7f4e6f742075706461746572000000000000000000000000000000000000000000600082015250565b6000611496600b83611350565b91506114a182611460565b602082019050919050565b600060208201905081810360008301526114c581611489565b9050919050565b7f546f74616c20737570706c79206973207a65726f000000000000000000000000600082015250565b6000611502601483611350565b915061150d826114cc565b602082019050919050565b60006020820190508181036000830152611531816114f5565b9050919050565b600069ffffffffffffffffffff82169050919050565b61155781611538565b811461156257600080fd5b50565b6000815190506115748161154e565b92915050565b6000819050919050565b61158d8161157a565b811461159857600080fd5b50565b6000815190506115aa81611584565b92915050565b6000815190506115bf8161120d565b92915050565b600080600080600060a086880312156115e1576115e06111d2565b5b60006115ef88828901611565565b95505060206116008882890161159b565b9450506040611611888289016115b0565b9350506060611622888289016115b0565b925050608061163388828901611565565b9150509295509295909350565b7f4e487b7100000000000000000000000000000000000000000000000000000000600052601160045260246000fd5b600061167a82611203565b915061168583611203565b925082820390508181111561169d5761169c611640565b5b92915050565b60006116ae82611203565b91506116b983611203565b92508282026116c781611203565b915082820484148315176116de576116dd611640565b5b5092915050565b7f4e487b7100000000000000000000000000000000000000000000000000000000600052601260045260246000fd5b600061171f82611203565b915061172a83611203565b92508261173a576117396116e5565b5b828204905092915050565b7f4f776e61626c6532537465703a2063616c6c6572206973206e6f74207468652060008201527f6e6577206f776e65720000000000000000000000000000000000000000000000602082015250565b60006117a1602983611350565b91506117ac82611745565b604082019050919050565b600060208201905081810360008301526117d081611794565b9050919050565b7f496e76616c696420726573657276652066656564000000000000000000000000600082015250565b600061180d601483611350565b9150611818826117d7565b602082019050919050565b6000602082019050818103600083015261183c81611800565b9050919050565b7f496e76616c696420757064617465720000000000000000000000000000000000600082015250565b6000611879600f83611350565b915061188482611843565b602082019050919050565b600060208201905081810360008301526118a88161186c565b9050919050565b7f496e76616c6964206d617820646966666572656e63652070657263656e740000600082015250565b60006118e5601e83611350565b91506118f0826118af565b602082019050919050565b60006020820190508181036000830152611914816118d8565b9050919050565b7f496e697469616c697a61626c653a20636f6e7472616374206973206e6f74206960008201527f6e697469616c697a696e67000000000000000000000000000000000000000000602082015250565b6000611977602b83611350565b91506119828261191b565b604082019050919050565b600060208201905081810360008301526119a68161196a565b9050919050565b7f4f776e61626c653a2063616c6c6572206973206e6f7420746865206f776e6572600082015250565b60006119e3602083611350565b91506119ee826119ad565b602082019050919050565b60006020820190508181036000830152611a12816119d6565b905091905056fea2646970667358221220c2230e7dbfd6ac2be582a114e1ac6045d4c8a535a5453031f7be59b3caa99b9c64736f6c634300081c0033",
  "devdoc": {
    "events": {
      "Initialized(uint8)": {
        "details": "Triggered when the contract has been initialized or reinitialized."
      }
    },
    "kind": "dev",
    "methods": {
      "acceptOwnership()": {
        "details": "The new owner accepts the ownership transfer."
      },
      "owner()": {
        "details": "Returns the address of the current owner."
      },
      "pendingOwner()": {
        "details": "Returns the address of the pending owner."
      },
      "renounceOwnership()": {
        "details": "Leaves the contract without owner. It will not be possible to call `onlyOwner` functions. Can only be called by the current owner. NOTE: Renouncing ownership will leave the contract without an owner, thereby disabling any functionality that is only available to the owner."
      },
      "transferOwnership(address)": {
        "details": "Starts the ownership transfer of the contract to a new account. Replaces the pending transfer if there is one. Can only be called by the current owner."
      },
      "updateRate(uint256,uint256)": {
        "params": {
          "totalSupply_": "The total supply of the SolvBTC, decimals is 18",
          "totalTVL_": "The total TVL of the SolvBTC, decimals is 18, because the reserve feed is in 18 decimals"
        }
      }
    },
    "version": 1
  },
  "userdoc": {
    "kind": "user",
    "methods": {
      "updateRate(uint256,uint256)": {
        "notice": "Update the rate of the Solv token"
      }
    },
    "version": 1
  },
  "storageLayout": {
    "storage": [
      {
        "astId": 292,
        "contract": "contracts/SolvBTCRateProvider.sol:SolvBTCRateProvider",
        "label": "_initialized",
        "offset": 0,
        "slot": "0",
        "type": "t_uint8"
      },
      {
        "astId": 295,
        "contract": "contracts/SolvBTCRateProvider.sol:SolvBTCRateProvider",
        "label": "_initializing",
        "offset": 1,
        "slot": "0",
        "type": "t_bool"
      },
      {
        "astId": 834,
        "contract": "contracts/SolvBTCRateProvider.sol:SolvBTCRateProvider",
        "label": "__gap",
        "offset": 0,
        "slot": "1",
        "type": "t_array(t_uint256)50_storage"
      },
      {
        "astId": 164,
        "contract": "contracts/SolvBTCRateProvider.sol:SolvBTCRateProvider",
        "label": "_owner",
        "offset": 0,
        "slot": "51",
        "type": "t_address"
      },
      {
        "astId": 284,
        "contract": "contracts/SolvBTCRateProvider.sol:SolvBTCRateProvider",
        "label": "__gap",
        "offset": 0,
        "slot": "52",
        "type": "t_array(t_uint256)49_storage"
      },
      {
        "astId": 57,
        "contract": "contracts/SolvBTCRateProvider.sol:SolvBTCRateProvider",
        "label": "_pendingOwner",
        "offset": 0,
        "slot": "101",
        "type": "t_address"
      },
      {
        "astId": 151,
        "contract": "contracts/SolvBTCRateProvider.sol:SolvBTCRateProvider",
        "label": "__gap",
        "offset": 0,
        "slot": "102",
        "type": "t_array(t_uint256)49_storage"
      }
    ],
    "types": {
      "t_address": {
        "encoding": "inplace",
        "label": "address",
        "numberOfBytes": "20"
      },
      "t_array(t_uint256)49_storage": {
        "base": "t_uint256",
        "encoding": "inplace",
        "label": "uint256[49]",
        "numberOfBytes": "1568"
      },
      "t_array(t_uint256)50_storage": {
        "base": "t_uint256",
        "encoding": "inplace",
        "label": "uint256[50]",
        "numberOfBytes": "1600"
      },
      "t_bool": {
        "encoding": "inplace",
        "label": "bool",
        "numberOfBytes": "1"
      },
      "t_uint256": {
        "encoding": "inplace",
        "label": "uint256",
        "numberOfBytes": "32"
      },
      "t_uint8": {
        "encoding": "inplace",
        "label": "uint8",
        "numberOfBytes": "1"
      }
    }
  }
}